:03000000020006F5
:03005F0002000399
:0300030002007187
:100062007FFF7EFFEE14FE70FBEF14FF70F4227F21
:1000720001758000EFF4F580C007120062D0078F8F
:0B00820006EE2EFF70EB7F0180E722EE
:06003500E478FFF6D8FD9F
:100013007900E94400601B7A00900091780175A093
:1000230000E493F2A308B8000205A0D9F4DAF2754C
:02003300A0FF2C
:10003B007800E84400600A790175A000E4F309D860
:10004B00FC7800E84400600C7900900001E4F0A318
:04005B00D8FCD9FAFA
:0D00060075810712008DE582600302000382
:04008D007582002256
:00000001FF
