:03000000020006F5
:03005F0002000399
:0300030002007187
:200062007FFF7EFFEE14FE70FBEF14FF70F4227F01758000EFF4F580C007120062D0078F22
:0A00820006EE2EFF70EB7F0180E711
:06003500E478FFF6D8FD9F
:200013007900E94400601B7A00900090780175A000E493F2A308B8000205A0D9F4DAF27503
:02003300A0FF2C
:20003B007800E84400600A790175A000E4F309D8FC7800E84400600C7900900001E4F0A3C3
:04005B00D8FCD9FAFA
:0D00060075810712008CE582600302000383
:04008C007582002257
:00000001FF
